{
	"Campaign.sol": {
		"Campaign": {
			"abi": [
				{
					"constant": true,
					"inputs": [],
					"name": "manager",
					"outputs": [
						{
							"name": "",
							"type": "address"
						}
					],
					"payable": false,
					"stateMutability": "view",
					"type": "function"
				},
				{
					"constant": true,
					"inputs": [],
					"name": "minimumContribution",
					"outputs": [
						{
							"name": "",
							"type": "uint256"
						}
					],
					"payable": false,
					"stateMutability": "view",
					"type": "function"
				},
				{
					"inputs": [
						{
							"name": "minimum",
							"type": "uint256"
						}
					],
					"payable": false,
					"stateMutability": "nonpayable",
					"type": "constructor"
				}
			],
			"devdoc": {
				"methods": {}
			},
			"evm": {
				"assembly": "    /* \"Campaign.sol\":28:242  contract Campaign {\r... */\n  mstore(0x40, 0x60)\n    /* \"Campaign.sol\":122:239  function Campaign(uint minimum) public {\r... */\n  jumpi(tag_1, iszero(callvalue))\n  0x0\n  dup1\n  revert\ntag_1:\n  mload(0x40)\n  0x20\n  dup1\n  bytecodeSize\n  dup4\n  codecopy\n  dup2\n  add\n  0x40\n  mstore\n  dup1\n  dup1\n  mload\n  swap1\n  0x20\n  add\n  swap1\n  swap2\n  swap1\n  pop\n  pop\n    /* \"Campaign.sol\":180:190  msg.sender */\n  caller\n    /* \"Campaign.sol\":172:179  manager */\n  0x0\n  dup1\n    /* \"Campaign.sol\":172:190  manager=msg.sender */\n  0x100\n  exp\n  dup2\n  sload\n  dup2\n  0xffffffffffffffffffffffffffffffffffffffff\n  mul\n  not\n  and\n  swap1\n  dup4\n  0xffffffffffffffffffffffffffffffffffffffff\n  and\n  mul\n  or\n  swap1\n  sstore\n  pop\n    /* \"Campaign.sol\":222:229  minimum */\n  dup1\n    /* \"Campaign.sol\":201:220  minimumContribution */\n  0x1\n    /* \"Campaign.sol\":201:229  minimumContribution= minimum */\n  dup2\n  swap1\n  sstore\n  pop\n    /* \"Campaign.sol\":122:239  function Campaign(uint minimum) public {\r... */\n  pop\n    /* \"Campaign.sol\":28:242  contract Campaign {\r... */\n  dataSize(sub_0)\n  dup1\n  dataOffset(sub_0)\n  0x0\n  codecopy\n  0x0\n  return\nstop\n\nsub_0: assembly {\n        /* \"Campaign.sol\":28:242  contract Campaign {\r... */\n      mstore(0x40, 0x60)\n      calldataload(0x0)\n      0x100000000000000000000000000000000000000000000000000000000\n      swap1\n      div\n      0xffffffff\n      and\n      dup1\n      0x481c6a75\n      eq\n      tag_2\n      jumpi\n      dup1\n      0x937e09b1\n      eq\n      tag_3\n      jumpi\n      0x0\n      dup1\n      revert\n        /* \"Campaign.sol\":53:76  address public  manager */\n    tag_2:\n      jumpi(tag_4, iszero(callvalue))\n      0x0\n      dup1\n      revert\n    tag_4:\n      tag_5\n      jump(tag_6)\n    tag_5:\n      mload(0x40)\n      dup1\n      dup3\n      0xffffffffffffffffffffffffffffffffffffffff\n      and\n      0xffffffffffffffffffffffffffffffffffffffff\n      and\n      dup2\n      mstore\n      0x20\n      add\n      swap2\n      pop\n      pop\n      mload(0x40)\n      dup1\n      swap2\n      sub\n      swap1\n      return\n        /* \"Campaign.sol\":83:115  uint public  minimumContribution */\n    tag_3:\n      jumpi(tag_7, iszero(callvalue))\n      0x0\n      dup1\n      revert\n    tag_7:\n      tag_8\n      jump(tag_9)\n    tag_8:\n      mload(0x40)\n      dup1\n      dup3\n      dup2\n      mstore\n      0x20\n      add\n      swap2\n      pop\n      pop\n      mload(0x40)\n      dup1\n      swap2\n      sub\n      swap1\n      return\n        /* \"Campaign.sol\":53:76  address public  manager */\n    tag_6:\n      0x0\n      dup1\n      swap1\n      sload\n      swap1\n      0x100\n      exp\n      swap1\n      div\n      0xffffffffffffffffffffffffffffffffffffffff\n      and\n      dup2\n      jump\t// out\n        /* \"Campaign.sol\":83:115  uint public  minimumContribution */\n    tag_9:\n      sload(0x1)\n      dup2\n      jump\t// out\n\n    auxdata: 0xa165627a7a7230582076fad6006eb07962a5dfbde17da4c2364a212b618e46a10765b471a2d2e5b2a00029\n}\n",
				"bytecode": {
					"linkReferences": {},
					"object": "6060604052341561000f57600080fd5b60405160208061019783398101604052808051906020019091905050336000806101000a81548173ffffffffffffffffffffffffffffffffffffffff021916908373ffffffffffffffffffffffffffffffffffffffff1602179055508060018190555050610115806100826000396000f30060606040526000357c0100000000000000000000000000000000000000000000000000000000900463ffffffff168063481c6a75146046578063937e09b114609857600080fd5b3415605057600080fd5b605660be565b604051808273ffffffffffffffffffffffffffffffffffffffff1673ffffffffffffffffffffffffffffffffffffffff16815260200191505060405180910390f35b341560a257600080fd5b60a860e3565b6040518082815260200191505060405180910390f35b6000809054906101000a900473ffffffffffffffffffffffffffffffffffffffff1681565b600154815600a165627a7a7230582076fad6006eb07962a5dfbde17da4c2364a212b618e46a10765b471a2d2e5b2a00029",
					"opcodes": "PUSH1 0x60 PUSH1 0x40 MSTORE CALLVALUE ISZERO PUSH2 0xF JUMPI PUSH1 0x0 DUP1 REVERT JUMPDEST PUSH1 0x40 MLOAD PUSH1 0x20 DUP1 PUSH2 0x197 DUP4 CODECOPY DUP2 ADD PUSH1 0x40 MSTORE DUP1 DUP1 MLOAD SWAP1 PUSH1 0x20 ADD SWAP1 SWAP2 SWAP1 POP POP CALLER PUSH1 0x0 DUP1 PUSH2 0x100 EXP DUP2 SLOAD DUP2 PUSH20 0xFFFFFFFFFFFFFFFFFFFFFFFFFFFFFFFFFFFFFFFF MUL NOT AND SWAP1 DUP4 PUSH20 0xFFFFFFFFFFFFFFFFFFFFFFFFFFFFFFFFFFFFFFFF AND MUL OR SWAP1 SSTORE POP DUP1 PUSH1 0x1 DUP2 SWAP1 SSTORE POP POP PUSH2 0x115 DUP1 PUSH2 0x82 PUSH1 0x0 CODECOPY PUSH1 0x0 RETURN STOP PUSH1 0x60 PUSH1 0x40 MSTORE PUSH1 0x0 CALLDATALOAD PUSH29 0x100000000000000000000000000000000000000000000000000000000 SWAP1 DIV PUSH4 0xFFFFFFFF AND DUP1 PUSH4 0x481C6A75 EQ PUSH1 0x46 JUMPI DUP1 PUSH4 0x937E09B1 EQ PUSH1 0x98 JUMPI PUSH1 0x0 DUP1 REVERT JUMPDEST CALLVALUE ISZERO PUSH1 0x50 JUMPI PUSH1 0x0 DUP1 REVERT JUMPDEST PUSH1 0x56 PUSH1 0xBE JUMP JUMPDEST PUSH1 0x40 MLOAD DUP1 DUP3 PUSH20 0xFFFFFFFFFFFFFFFFFFFFFFFFFFFFFFFFFFFFFFFF AND PUSH20 0xFFFFFFFFFFFFFFFFFFFFFFFFFFFFFFFFFFFFFFFF AND DUP2 MSTORE PUSH1 0x20 ADD SWAP2 POP POP PUSH1 0x40 MLOAD DUP1 SWAP2 SUB SWAP1 RETURN JUMPDEST CALLVALUE ISZERO PUSH1 0xA2 JUMPI PUSH1 0x0 DUP1 REVERT JUMPDEST PUSH1 0xA8 PUSH1 0xE3 JUMP JUMPDEST PUSH1 0x40 MLOAD DUP1 DUP3 DUP2 MSTORE PUSH1 0x20 ADD SWAP2 POP POP PUSH1 0x40 MLOAD DUP1 SWAP2 SUB SWAP1 RETURN JUMPDEST PUSH1 0x0 DUP1 SWAP1 SLOAD SWAP1 PUSH2 0x100 EXP SWAP1 DIV PUSH20 0xFFFFFFFFFFFFFFFFFFFFFFFFFFFFFFFFFFFFFFFF AND DUP2 JUMP JUMPDEST PUSH1 0x1 SLOAD DUP2 JUMP STOP LOG1 PUSH6 0x627A7A723058 KECCAK256 PUSH23 0xFAD6006EB07962A5DFBDE17DA4C2364A212B618E46A107 PUSH6 0xB471A2D2E5B2 LOG0 STOP 0x29 "
				},
				"gasEstimates": {
					"creation": {
						"codeDepositCost": "55400",
						"executionCost": "40449",
						"totalCost": "95849"
					},
					"external": {
						"manager()": "413",
						"minimumContribution()": "387"
					}
				},
				"methodIdentifiers": {
					"manager()": "481c6a75",
					"minimumContribution()": "937e09b1"
				}
			},
			"userdoc": {
				"methods": {}
			}
		}
	}
}