{
	"Campaign.sol": {
		"Campaign": {
			"abi": [
				{
					"constant": true,
					"inputs": [],
					"name": "manager",
					"outputs": [
						{
							"name": "",
							"type": "address"
						}
					],
					"payable": false,
					"stateMutability": "view",
					"type": "function"
				},
				{
					"constant": true,
					"inputs": [],
					"name": "minimumContribution",
					"outputs": [
						{
							"name": "",
							"type": "uint256"
						}
					],
					"payable": false,
					"stateMutability": "view",
					"type": "function"
				},
				{
					"constant": true,
					"inputs": [
						{
							"name": "",
							"type": "uint256"
						}
					],
					"name": "approvers",
					"outputs": [
						{
							"name": "",
							"type": "address"
						}
					],
					"payable": false,
					"stateMutability": "view",
					"type": "function"
				},
				{
					"constant": false,
					"inputs": [],
					"name": "contribute",
					"outputs": [],
					"payable": true,
					"stateMutability": "payable",
					"type": "function"
				},
				{
					"inputs": [
						{
							"name": "minimum",
							"type": "uint256"
						}
					],
					"payable": false,
					"stateMutability": "nonpayable",
					"type": "constructor"
				}
			],
			"devdoc": {
				"methods": {}
			},
			"evm": {
				"assembly": "    /* \"Campaign.sol\":28:381  contract Campaign {\r... */\n  mstore(0x40, 0x60)\n    /* \"Campaign.sol\":157:274  function Campaign(uint minimum) public {\r... */\n  jumpi(tag_1, iszero(callvalue))\n  0x0\n  dup1\n  revert\ntag_1:\n  mload(0x40)\n  0x20\n  dup1\n  bytecodeSize\n  dup4\n  codecopy\n  dup2\n  add\n  0x40\n  mstore\n  dup1\n  dup1\n  mload\n  swap1\n  0x20\n  add\n  swap1\n  swap2\n  swap1\n  pop\n  pop\n    /* \"Campaign.sol\":215:225  msg.sender */\n  caller\n    /* \"Campaign.sol\":207:214  manager */\n  0x0\n  dup1\n    /* \"Campaign.sol\":207:225  manager=msg.sender */\n  0x100\n  exp\n  dup2\n  sload\n  dup2\n  0xffffffffffffffffffffffffffffffffffffffff\n  mul\n  not\n  and\n  swap1\n  dup4\n  0xffffffffffffffffffffffffffffffffffffffff\n  and\n  mul\n  or\n  swap1\n  sstore\n  pop\n    /* \"Campaign.sol\":257:264  minimum */\n  dup1\n    /* \"Campaign.sol\":236:255  minimumContribution */\n  0x1\n    /* \"Campaign.sol\":236:264  minimumContribution= minimum */\n  dup2\n  swap1\n  sstore\n  pop\n    /* \"Campaign.sol\":157:274  function Campaign(uint minimum) public {\r... */\n  pop\n    /* \"Campaign.sol\":28:381  contract Campaign {\r... */\n  dataSize(sub_0)\n  dup1\n  dataOffset(sub_0)\n  0x0\n  codecopy\n  0x0\n  return\nstop\n\nsub_0: assembly {\n        /* \"Campaign.sol\":28:381  contract Campaign {\r... */\n      mstore(0x40, 0x60)\n      calldataload(0x0)\n      0x100000000000000000000000000000000000000000000000000000000\n      swap1\n      div\n      0xffffffff\n      and\n      dup1\n      0x481c6a75\n      eq\n      tag_2\n      jumpi\n      dup1\n      0x937e09b1\n      eq\n      tag_3\n      jumpi\n      dup1\n      0xd3650fb8\n      eq\n      tag_4\n      jumpi\n      dup1\n      0xd7bb99ba\n      eq\n      tag_5\n      jumpi\n      0x0\n      dup1\n      revert\n        /* \"Campaign.sol\":53:76  address public  manager */\n    tag_2:\n      jumpi(tag_6, iszero(callvalue))\n      0x0\n      dup1\n      revert\n    tag_6:\n      tag_7\n      jump(tag_8)\n    tag_7:\n      mload(0x40)\n      dup1\n      dup3\n      0xffffffffffffffffffffffffffffffffffffffff\n      and\n      0xffffffffffffffffffffffffffffffffffffffff\n      and\n      dup2\n      mstore\n      0x20\n      add\n      swap2\n      pop\n      pop\n      mload(0x40)\n      dup1\n      swap2\n      sub\n      swap1\n      return\n        /* \"Campaign.sol\":83:115  uint public  minimumContribution */\n    tag_3:\n      jumpi(tag_9, iszero(callvalue))\n      0x0\n      dup1\n      revert\n    tag_9:\n      tag_10\n      jump(tag_11)\n    tag_10:\n      mload(0x40)\n      dup1\n      dup3\n      dup2\n      mstore\n      0x20\n      add\n      swap2\n      pop\n      pop\n      mload(0x40)\n      dup1\n      swap2\n      sub\n      swap1\n      return\n        /* \"Campaign.sol\":122:148  address[] public approvers */\n    tag_4:\n      jumpi(tag_12, iszero(callvalue))\n      0x0\n      dup1\n      revert\n    tag_12:\n      tag_13\n      0x4\n      dup1\n      dup1\n      calldataload\n      swap1\n      0x20\n      add\n      swap1\n      swap2\n      swap1\n      pop\n      pop\n      jump(tag_14)\n    tag_13:\n      mload(0x40)\n      dup1\n      dup3\n      0xffffffffffffffffffffffffffffffffffffffff\n      and\n      0xffffffffffffffffffffffffffffffffffffffff\n      and\n      dup2\n      mstore\n      0x20\n      add\n      swap2\n      pop\n      pop\n      mload(0x40)\n      dup1\n      swap2\n      sub\n      swap1\n      return\n        /* \"Campaign.sol\":282:378  function contribute() public payable {\r... */\n    tag_5:\n      tag_15\n      jump(tag_16)\n    tag_15:\n      stop\n        /* \"Campaign.sol\":53:76  address public  manager */\n    tag_8:\n      0x0\n      dup1\n      swap1\n      sload\n      swap1\n      0x100\n      exp\n      swap1\n      div\n      0xffffffffffffffffffffffffffffffffffffffff\n      and\n      dup2\n      jump\t// out\n        /* \"Campaign.sol\":83:115  uint public  minimumContribution */\n    tag_11:\n      sload(0x1)\n      dup2\n      jump\t// out\n        /* \"Campaign.sol\":122:148  address[] public approvers */\n    tag_14:\n      0x2\n      dup2\n      dup2\n      sload\n      dup2\n      lt\n      iszero\n      iszero\n      tag_17\n      jumpi\n      invalid\n    tag_17:\n      swap1\n      0x0\n      mstore\n      keccak256(0x0, 0x20)\n      swap1\n      add\n      0x0\n      swap2\n      pop\n      sload\n      swap1\n      0x100\n      exp\n      swap1\n      div\n      0xffffffffffffffffffffffffffffffffffffffff\n      and\n      dup2\n      jump\t// out\n        /* \"Campaign.sol\":282:378  function contribute() public payable {\r... */\n    tag_16:\n        /* \"Campaign.sol\":350:369  minimumContribution */\n      sload(0x1)\n        /* \"Campaign.sol\":338:347  msg.value */\n      callvalue\n        /* \"Campaign.sol\":338:369  msg.value>= minimumContribution */\n      lt\n      iszero\n        /* \"Campaign.sol\":330:370  require(msg.value>= minimumContribution) */\n      iszero\n      iszero\n      tag_20\n      jumpi\n      0x0\n      dup1\n      revert\n    tag_20:\n        /* \"Campaign.sol\":282:378  function contribute() public payable {\r... */\n      jump\t// out\n\n    auxdata: 0xa165627a7a7230582008578f3d3eb4b1dd8ecc842987a61fa0830eb5376372ce24281b2044fae9823f0029\n}\n",
				"bytecode": {
					"linkReferences": {},
					"object": "6060604052341561000f57600080fd5b60405160208061027483398101604052808051906020019091905050336000806101000a81548173ffffffffffffffffffffffffffffffffffffffff021916908373ffffffffffffffffffffffffffffffffffffffff16021790555080600181905550506101f2806100826000396000f30060606040526000357c0100000000000000000000000000000000000000000000000000000000900463ffffffff168063481c6a751461005e578063937e09b1146100b3578063d3650fb8146100dc578063d7bb99ba1461013f57600080fd5b341561006957600080fd5b610071610149565b604051808273ffffffffffffffffffffffffffffffffffffffff1673ffffffffffffffffffffffffffffffffffffffff16815260200191505060405180910390f35b34156100be57600080fd5b6100c661016e565b6040518082815260200191505060405180910390f35b34156100e757600080fd5b6100fd6004808035906020019091905050610174565b604051808273ffffffffffffffffffffffffffffffffffffffff1673ffffffffffffffffffffffffffffffffffffffff16815260200191505060405180910390f35b6101476101b3565b005b6000809054906101000a900473ffffffffffffffffffffffffffffffffffffffff1681565b60015481565b60028181548110151561018357fe5b90600052602060002090016000915054906101000a900473ffffffffffffffffffffffffffffffffffffffff1681565b60015434101515156101c457600080fd5b5600a165627a7a7230582008578f3d3eb4b1dd8ecc842987a61fa0830eb5376372ce24281b2044fae9823f0029",
					"opcodes": "PUSH1 0x60 PUSH1 0x40 MSTORE CALLVALUE ISZERO PUSH2 0xF JUMPI PUSH1 0x0 DUP1 REVERT JUMPDEST PUSH1 0x40 MLOAD PUSH1 0x20 DUP1 PUSH2 0x274 DUP4 CODECOPY DUP2 ADD PUSH1 0x40 MSTORE DUP1 DUP1 MLOAD SWAP1 PUSH1 0x20 ADD SWAP1 SWAP2 SWAP1 POP POP CALLER PUSH1 0x0 DUP1 PUSH2 0x100 EXP DUP2 SLOAD DUP2 PUSH20 0xFFFFFFFFFFFFFFFFFFFFFFFFFFFFFFFFFFFFFFFF MUL NOT AND SWAP1 DUP4 PUSH20 0xFFFFFFFFFFFFFFFFFFFFFFFFFFFFFFFFFFFFFFFF AND MUL OR SWAP1 SSTORE POP DUP1 PUSH1 0x1 DUP2 SWAP1 SSTORE POP POP PUSH2 0x1F2 DUP1 PUSH2 0x82 PUSH1 0x0 CODECOPY PUSH1 0x0 RETURN STOP PUSH1 0x60 PUSH1 0x40 MSTORE PUSH1 0x0 CALLDATALOAD PUSH29 0x100000000000000000000000000000000000000000000000000000000 SWAP1 DIV PUSH4 0xFFFFFFFF AND DUP1 PUSH4 0x481C6A75 EQ PUSH2 0x5E JUMPI DUP1 PUSH4 0x937E09B1 EQ PUSH2 0xB3 JUMPI DUP1 PUSH4 0xD3650FB8 EQ PUSH2 0xDC JUMPI DUP1 PUSH4 0xD7BB99BA EQ PUSH2 0x13F JUMPI PUSH1 0x0 DUP1 REVERT JUMPDEST CALLVALUE ISZERO PUSH2 0x69 JUMPI PUSH1 0x0 DUP1 REVERT JUMPDEST PUSH2 0x71 PUSH2 0x149 JUMP JUMPDEST PUSH1 0x40 MLOAD DUP1 DUP3 PUSH20 0xFFFFFFFFFFFFFFFFFFFFFFFFFFFFFFFFFFFFFFFF AND PUSH20 0xFFFFFFFFFFFFFFFFFFFFFFFFFFFFFFFFFFFFFFFF AND DUP2 MSTORE PUSH1 0x20 ADD SWAP2 POP POP PUSH1 0x40 MLOAD DUP1 SWAP2 SUB SWAP1 RETURN JUMPDEST CALLVALUE ISZERO PUSH2 0xBE JUMPI PUSH1 0x0 DUP1 REVERT JUMPDEST PUSH2 0xC6 PUSH2 0x16E JUMP JUMPDEST PUSH1 0x40 MLOAD DUP1 DUP3 DUP2 MSTORE PUSH1 0x20 ADD SWAP2 POP POP PUSH1 0x40 MLOAD DUP1 SWAP2 SUB SWAP1 RETURN JUMPDEST CALLVALUE ISZERO PUSH2 0xE7 JUMPI PUSH1 0x0 DUP1 REVERT JUMPDEST PUSH2 0xFD PUSH1 0x4 DUP1 DUP1 CALLDATALOAD SWAP1 PUSH1 0x20 ADD SWAP1 SWAP2 SWAP1 POP POP PUSH2 0x174 JUMP JUMPDEST PUSH1 0x40 MLOAD DUP1 DUP3 PUSH20 0xFFFFFFFFFFFFFFFFFFFFFFFFFFFFFFFFFFFFFFFF AND PUSH20 0xFFFFFFFFFFFFFFFFFFFFFFFFFFFFFFFFFFFFFFFF AND DUP2 MSTORE PUSH1 0x20 ADD SWAP2 POP POP PUSH1 0x40 MLOAD DUP1 SWAP2 SUB SWAP1 RETURN JUMPDEST PUSH2 0x147 PUSH2 0x1B3 JUMP JUMPDEST STOP JUMPDEST PUSH1 0x0 DUP1 SWAP1 SLOAD SWAP1 PUSH2 0x100 EXP SWAP1 DIV PUSH20 0xFFFFFFFFFFFFFFFFFFFFFFFFFFFFFFFFFFFFFFFF AND DUP2 JUMP JUMPDEST PUSH1 0x1 SLOAD DUP2 JUMP JUMPDEST PUSH1 0x2 DUP2 DUP2 SLOAD DUP2 LT ISZERO ISZERO PUSH2 0x183 JUMPI INVALID JUMPDEST SWAP1 PUSH1 0x0 MSTORE PUSH1 0x20 PUSH1 0x0 KECCAK256 SWAP1 ADD PUSH1 0x0 SWAP2 POP SLOAD SWAP1 PUSH2 0x100 EXP SWAP1 DIV PUSH20 0xFFFFFFFFFFFFFFFFFFFFFFFFFFFFFFFFFFFFFFFF AND DUP2 JUMP JUMPDEST PUSH1 0x1 SLOAD CALLVALUE LT ISZERO ISZERO ISZERO PUSH2 0x1C4 JUMPI PUSH1 0x0 DUP1 REVERT JUMPDEST JUMP STOP LOG1 PUSH6 0x627A7A723058 KECCAK256 ADDMOD JUMPI DUP16 RETURNDATASIZE RETURNDATACOPY 0xb4 0xb1 0xdd DUP15 0xcc DUP5 0x29 DUP8 0xa6 0x1f LOG0 DUP4 0xe 0xb5 CALLDATACOPY PUSH4 0x72CE2428 0x1b KECCAK256 DIFFICULTY STATICCALL 0xe9 DUP3 0x3f STOP 0x29 "
				},
				"gasEstimates": {
					"creation": {
						"codeDepositCost": "99600",
						"executionCost": "40491",
						"totalCost": "140091"
					},
					"external": {
						"approvers(uint256)": "782",
						"contribute()": "385",
						"manager()": "413",
						"minimumContribution()": "387"
					}
				},
				"methodIdentifiers": {
					"approvers(uint256)": "d3650fb8",
					"contribute()": "d7bb99ba",
					"manager()": "481c6a75",
					"minimumContribution()": "937e09b1"
				}
			},
			"userdoc": {
				"methods": {}
			}
		}
	}
}